{"abi":[{"type":"function","name":"acceptJob","inputs":[{"name":"jobId","type":"uint256","internalType":"uint256"}],"outputs":[],"stateMutability":"nonpayable"},{"type":"function","name":"jobCount","inputs":[],"outputs":[{"name":"","type":"uint256","internalType":"uint256"}],"stateMutability":"view"},{"type":"function","name":"jobs","inputs":[{"name":"","type":"uint256","internalType":"uint256"}],"outputs":[{"name":"employer","type":"address","internalType":"address"},{"name":"worker","type":"address","internalType":"address"},{"name":"amount","type":"uint256","internalType":"uint256"},{"name":"accepted","type":"bool","internalType":"bool"},{"name":"completed","type":"bool","internalType":"bool"},{"name":"paid","type":"bool","internalType":"bool"}],"stateMutability":"view"},{"type":"function","name":"markCompleted","inputs":[{"name":"jobId","type":"uint256","internalType":"uint256"}],"outputs":[],"stateMutability":"nonpayable"},{"type":"function","name":"postJob","inputs":[],"outputs":[{"name":"","type":"uint256","internalType":"uint256"}],"stateMutability":"payable"},{"type":"function","name":"releaseFunds","inputs":[{"name":"jobId","type":"uint256","internalType":"uint256"}],"outputs":[],"stateMutability":"nonpayable"},{"type":"event","name":"FundsReleased","inputs":[{"name":"jobId","type":"uint256","indexed":true,"internalType":"uint256"},{"name":"worker","type":"address","indexed":false,"internalType":"address"},{"name":"amount","type":"uint256","indexed":false,"internalType":"uint256"}],"anonymous":false},{"type":"event","name":"JobAccepted","inputs":[{"name":"jobId","type":"uint256","indexed":true,"internalType":"uint256"},{"name":"worker","type":"address","indexed":false,"internalType":"address"}],"anonymous":false},{"type":"event","name":"JobCompleted","inputs":[{"name":"jobId","type":"uint256","indexed":true,"internalType":"uint256"}],"anonymous":false},{"type":"event","name":"JobPosted","inputs":[{"name":"jobId","type":"uint256","indexed":true,"internalType":"uint256"},{"name":"employer","type":"address","indexed":false,"internalType":"address"},{"name":"amount","type":"uint256","indexed":false,"internalType":"uint256"}],"anonymous":false}],"bytecode":{"object":"0x608060405234801561000f575f80fd5b50610e7e8061001d5f395ff3fe608060405260043610610054575f3560e01c8063180aedf3146100585780634c5d8a0f146100995780634d68282f146100c35780635f1821ff146100eb57806363b2f3c914610109578063cac5c51214610131575b5f80fd5b348015610063575f80fd5b5061007e60048036038101906100799190610939565b610159565b604051610090969594939291906109cc565b60405180910390f35b3480156100a4575f80fd5b506100ad6101f5565b6040516100ba9190610a2b565b60405180910390f35b3480156100ce575f80fd5b506100e960048036038101906100e49190610939565b6101fa565b005b6100f361042e565b6040516101009190610a2b565b60405180910390f35b348015610114575f80fd5b5061012f600480360381019061012a9190610939565b610630565b005b34801561013c575f80fd5b5061015760048036038101906101529190610939565b6107c0565b005b6001602052805f5260405f205f91509050805f015f9054906101000a900473ffffffffffffffffffffffffffffffffffffffff1690806001015f9054906101000a900473ffffffffffffffffffffffffffffffffffffffff1690806002015490806003015f9054906101000a900460ff16908060030160019054906101000a900460ff16908060030160029054906101000a900460ff16905086565b5f5481565b5f60015f8381526020019081526020015f209050805f015f9054906101000a900473ffffffffffffffffffffffffffffffffffffffff1673ffffffffffffffffffffffffffffffffffffffff163373ffffffffffffffffffffffffffffffffffffffff161461029e576040517f08c379a000000000000000000000000000000000000000000000000000000000815260040161029590610a9e565b60405180910390fd5b8060030160019054906101000a900460ff166102ef576040517f08c379a00000000000000000000000000000000000000000000000000000000081526004016102e690610b06565b60405180910390fd5b8060030160029054906101000a900460ff1615610341576040517f08c379a000000000000000000000000000000000000000000000000000000000815260040161033890610b6e565b60405180910390fd5b60018160030160026101000a81548160ff021916908315150217905550806001015f9054906101000a900473ffffffffffffffffffffffffffffffffffffffff1673ffffffffffffffffffffffffffffffffffffffff166108fc826002015490811502906040515f60405180830381858888f193505050501580156103c8573d5f803e3d5ffd5b50817f6e3c6096795c8298a218b2cfb8bde42726ff7c9a3d27b4d3ba41ab7f74feb5fb826001015f9054906101000a900473ffffffffffffffffffffffffffffffffffffffff168360020154604051610422929190610b8c565b60405180910390a25050565b5f803411610471576040517f08c379a000000000000000000000000000000000000000000000000000000000815260040161046890610bfd565b60405180910390fd5b5f8081548092919061048290610c48565b91905055506040518060c001604052803373ffffffffffffffffffffffffffffffffffffffff1681526020015f73ffffffffffffffffffffffffffffffffffffffff1681526020013481526020015f151581526020015f151581526020015f151581525060015f805481526020019081526020015f205f820151815f015f6101000a81548173ffffffffffffffffffffffffffffffffffffffff021916908373ffffffffffffffffffffffffffffffffffffffff1602179055506020820151816001015f6101000a81548173ffffffffffffffffffffffffffffffffffffffff021916908373ffffffffffffffffffffffffffffffffffffffff160217905550604082015181600201556060820151816003015f6101000a81548160ff02191690831515021790555060808201518160030160016101000a81548160ff02191690831515021790555060a08201518160030160026101000a81548160ff0219169083151502179055509050505f547fe6f2f347838fc981db964da8bbb1855db0ed5008037096e90da474c23b0f432b3334604051610621929190610b8c565b60405180910390a25f54905090565b5f60015f8381526020019081526020015f209050806003015f9054906101000a900460ff1615610695576040517f08c379a000000000000000000000000000000000000000000000000000000000815260040161068c90610cd9565b60405180910390fd5b5f73ffffffffffffffffffffffffffffffffffffffff16816001015f9054906101000a900473ffffffffffffffffffffffffffffffffffffffff1673ffffffffffffffffffffffffffffffffffffffff1614610726576040517f08c379a000000000000000000000000000000000000000000000000000000000815260040161071d90610d41565b60405180910390fd5b33816001015f6101000a81548173ffffffffffffffffffffffffffffffffffffffff021916908373ffffffffffffffffffffffffffffffffffffffff1602179055506001816003015f6101000a81548160ff021916908315150217905550817f4426e4a90a9570c8f678a263b11785eaaade8b79d76d18c43d4d8e00062e4f83336040516107b49190610d5f565b60405180910390a25050565b5f60015f8381526020019081526020015f209050805f015f9054906101000a900473ffffffffffffffffffffffffffffffffffffffff1673ffffffffffffffffffffffffffffffffffffffff163373ffffffffffffffffffffffffffffffffffffffff1614610864576040517f08c379a000000000000000000000000000000000000000000000000000000000815260040161085b90610dc2565b60405180910390fd5b806003015f9054906101000a900460ff166108b4576040517f08c379a00000000000000000000000000000000000000000000000000000000081526004016108ab90610e2a565b60405180910390fd5b60018160030160016101000a81548160ff021916908315150217905550817f02244c8529cb95e213ee542e76e7776342b3dabd10203d01472bbf4441be892960405160405180910390a25050565b5f80fd5b5f819050919050565b61091881610906565b8114610922575f80fd5b50565b5f813590506109338161090f565b92915050565b5f6020828403121561094e5761094d610902565b5b5f61095b84828501610925565b91505092915050565b5f73ffffffffffffffffffffffffffffffffffffffff82169050919050565b5f61098d82610964565b9050919050565b61099d81610983565b82525050565b6109ac81610906565b82525050565b5f8115159050919050565b6109c6816109b2565b82525050565b5f60c0820190506109df5f830189610994565b6109ec6020830188610994565b6109f960408301876109a3565b610a0660608301866109bd565b610a1360808301856109bd565b610a2060a08301846109bd565b979650505050505050565b5f602082019050610a3e5f8301846109a3565b92915050565b5f82825260208201905092915050565b7f4f6e6c7920656d706c6f7965722063616e2072656c65617365000000000000005f82015250565b5f610a88601983610a44565b9150610a9382610a54565b602082019050919050565b5f6020820190508181035f830152610ab581610a7c565b9050919050565b7f4e6f74206d61726b656420636f6d706c657465000000000000000000000000005f82015250565b5f610af0601383610a44565b9150610afb82610abc565b602082019050919050565b5f6020820190508181035f830152610b1d81610ae4565b9050919050565b7f416c7265616479207061696400000000000000000000000000000000000000005f82015250565b5f610b58600c83610a44565b9150610b6382610b24565b602082019050919050565b5f6020820190508181035f830152610b8581610b4c565b9050919050565b5f604082019050610b9f5f830185610994565b610bac60208301846109a3565b9392505050565b7f46756e64732072657175697265640000000000000000000000000000000000005f82015250565b5f610be7600e83610a44565b9150610bf282610bb3565b602082019050919050565b5f6020820190508181035f830152610c1481610bdb565b9050919050565b7f4e487b71000000000000000000000000000000000000000000000000000000005f52601160045260245ffd5b5f610c5282610906565b91507fffffffffffffffffffffffffffffffffffffffffffffffffffffffffffffffff8203610c8457610c83610c1b565b5b600182019050919050565b7f416c7265616479206163636570746564000000000000000000000000000000005f82015250565b5f610cc3601083610a44565b9150610cce82610c8f565b602082019050919050565b5f6020820190508181035f830152610cf081610cb7565b9050919050565b7f416c726561647920686173206120776f726b65720000000000000000000000005f82015250565b5f610d2b601483610a44565b9150610d3682610cf7565b602082019050919050565b5f6020820190508181035f830152610d5881610d1f565b9050919050565b5f602082019050610d725f830184610994565b92915050565b7f4f6e6c7920656d706c6f7965722063616e206d61726b20636f6d706c657465005f82015250565b5f610dac601f83610a44565b9150610db782610d78565b602082019050919050565b5f6020820190508181035f830152610dd981610da0565b9050919050565b7f4e6f7420616363657074656420796574000000000000000000000000000000005f82015250565b5f610e14601083610a44565b9150610e1f82610de0565b602082019050919050565b5f6020820190508181035f830152610e4181610e08565b905091905056fea2646970667358221220bda617f1b0255c95c4b4e6179de3b17f828298b59edc0e33021599287ef922f764736f6c63430008140033","linkReferences":{}},"methodIdentifiers":{"acceptJob(uint256)":"63b2f3c9","jobCount()":"4c5d8a0f","jobs(uint256)":"180aedf3","markCompleted(uint256)":"cac5c512","postJob()":"5f1821ff","releaseFunds(uint256)":"4d68282f"},"id":0}